{
  "_format": "hh-sol-artifact-1",
  "contractName": "Voting",
  "sourceName": "contracts/Voting.sol",
  "abi": [
    {
      "anonymous": false,
      "inputs": [
        {
          "indexed": false,
          "internalType": "uint256",
          "name": "id",
          "type": "uint256"
        },
        {
          "indexed": false,
          "internalType": "string",
          "name": "title",
          "type": "string"
        },
        {
          "indexed": false,
          "internalType": "uint256",
          "name": "deadline",
          "type": "uint256"
        }
      ],
      "name": "PollCreated",
      "type": "event"
    },
    {
      "anonymous": false,
      "inputs": [
        {
          "indexed": false,
          "internalType": "uint256",
          "name": "pollId",
          "type": "uint256"
        },
        {
          "indexed": false,
          "internalType": "address",
          "name": "voter",
          "type": "address"
        },
        {
          "indexed": false,
          "internalType": "uint256",
          "name": "optionIndex",
          "type": "uint256"
        }
      ],
      "name": "Voted",
      "type": "event"
    },
    {
      "inputs": [
        {
          "internalType": "string",
          "name": "_title",
          "type": "string"
        },
        {
          "internalType": "string",
          "name": "_description",
          "type": "string"
        },
        {
          "internalType": "string[]",
          "name": "_options",
          "type": "string[]"
        },
        {
          "internalType": "uint256",
          "name": "_durationInMinutes",
          "type": "uint256"
        }
      ],
      "name": "createPoll",
      "outputs": [],
      "stateMutability": "nonpayable",
      "type": "function"
    },
    {
      "inputs": [
        {
          "internalType": "uint256",
          "name": "_pollId",
          "type": "uint256"
        }
      ],
      "name": "endPoll",
      "outputs": [],
      "stateMutability": "nonpayable",
      "type": "function"
    },
    {
      "inputs": [],
      "name": "getAllPolls",
      "outputs": [
        {
          "components": [
            {
              "internalType": "uint256",
              "name": "id",
              "type": "uint256"
            },
            {
              "internalType": "address",
              "name": "creator",
              "type": "address"
            },
            {
              "internalType": "string",
              "name": "title",
              "type": "string"
            },
            {
              "internalType": "string",
              "name": "description",
              "type": "string"
            },
            {
              "internalType": "string[]",
              "name": "options",
              "type": "string[]"
            },
            {
              "internalType": "uint256",
              "name": "deadline",
              "type": "uint256"
            },
            {
              "internalType": "uint256",
              "name": "totalVotes",
              "type": "uint256"
            },
            {
              "internalType": "bool",
              "name": "active",
              "type": "bool"
            }
          ],
          "internalType": "struct Voting.Poll[]",
          "name": "",
          "type": "tuple[]"
        }
      ],
      "stateMutability": "view",
      "type": "function"
    },
    {
      "inputs": [
        {
          "internalType": "uint256",
          "name": "_pollId",
          "type": "uint256"
        }
      ],
      "name": "getOptionVotes",
      "outputs": [
        {
          "internalType": "uint256[]",
          "name": "",
          "type": "uint256[]"
        }
      ],
      "stateMutability": "view",
      "type": "function"
    },
    {
      "inputs": [
        {
          "internalType": "uint256",
          "name": "_id",
          "type": "uint256"
        }
      ],
      "name": "getPoll",
      "outputs": [
        {
          "components": [
            {
              "internalType": "uint256",
              "name": "id",
              "type": "uint256"
            },
            {
              "internalType": "address",
              "name": "creator",
              "type": "address"
            },
            {
              "internalType": "string",
              "name": "title",
              "type": "string"
            },
            {
              "internalType": "string",
              "name": "description",
              "type": "string"
            },
            {
              "internalType": "string[]",
              "name": "options",
              "type": "string[]"
            },
            {
              "internalType": "uint256",
              "name": "deadline",
              "type": "uint256"
            },
            {
              "internalType": "uint256",
              "name": "totalVotes",
              "type": "uint256"
            },
            {
              "internalType": "bool",
              "name": "active",
              "type": "bool"
            }
          ],
          "internalType": "struct Voting.Poll",
          "name": "",
          "type": "tuple"
        }
      ],
      "stateMutability": "view",
      "type": "function"
    },
    {
      "inputs": [
        {
          "internalType": "uint256",
          "name": "",
          "type": "uint256"
        },
        {
          "internalType": "address",
          "name": "",
          "type": "address"
        }
      ],
      "name": "hasVoted",
      "outputs": [
        {
          "internalType": "bool",
          "name": "",
          "type": "bool"
        }
      ],
      "stateMutability": "view",
      "type": "function"
    },
    {
      "inputs": [
        {
          "internalType": "uint256",
          "name": "",
          "type": "uint256"
        }
      ],
      "name": "polls",
      "outputs": [
        {
          "internalType": "uint256",
          "name": "id",
          "type": "uint256"
        },
        {
          "internalType": "address",
          "name": "creator",
          "type": "address"
        },
        {
          "internalType": "string",
          "name": "title",
          "type": "string"
        },
        {
          "internalType": "string",
          "name": "description",
          "type": "string"
        },
        {
          "internalType": "uint256",
          "name": "deadline",
          "type": "uint256"
        },
        {
          "internalType": "uint256",
          "name": "totalVotes",
          "type": "uint256"
        },
        {
          "internalType": "bool",
          "name": "active",
          "type": "bool"
        }
      ],
      "stateMutability": "view",
      "type": "function"
    },
    {
      "inputs": [
        {
          "internalType": "address",
          "name": "user",
          "type": "address"
        }
      ],
      "name": "userVotes",
      "outputs": [
        {
          "internalType": "uint256[]",
          "name": "",
          "type": "uint256[]"
        }
      ],
      "stateMutability": "view",
      "type": "function"
    },
    {
      "inputs": [
        {
          "internalType": "uint256",
          "name": "_pollId",
          "type": "uint256"
        },
        {
          "internalType": "uint256",
          "name": "_optionIndex",
          "type": "uint256"
        }
      ],
      "name": "vote",
      "outputs": [],
      "stateMutability": "nonpayable",
      "type": "function"
    },
    {
      "inputs": [
        {
          "internalType": "uint256",
          "name": "",
          "type": "uint256"
        },
        {
          "internalType": "uint256",
          "name": "",
          "type": "uint256"
        }
      ],
      "name": "votes",
      "outputs": [
        {
          "internalType": "uint256",
          "name": "",
          "type": "uint256"
        }
      ],
      "stateMutability": "view",
      "type": "function"
    }
  ],
  "bytecode": "0x6080604052348015600f57600080fd5b5061262b8061001f6000396000f3fe608060405234801561001057600080fd5b506004361061009e5760003560e01c8063ac2f007411610066578063ac2f007414610181578063ad0f04a9146101b7578063b384abef146101d3578063c6e36a32146101ef578063f43b87781461021f5761009e565b80631a8cbcaa146100a35780631b2a5a2e146100d357806332b633fa1461010357806343859632146101215780636219015014610151575b600080fd5b6100bd60048036038101906100b89190611520565b61023b565b6040516100ca91906117c8565b60405180910390f35b6100ed60048036038101906100e89190611520565b610504565b6040516100fa9190611899565b60405180910390f35b61010b610881565b6040516101189190611a3b565b60405180910390f35b61013b60048036038101906101369190611a89565b610b6d565b6040516101489190611ad8565b60405180910390f35b61016b60048036038101906101669190611af3565b610b9c565b6040516101789190611899565b60405180910390f35b61019b60048036038101906101969190611520565b610c33565b6040516101ae9796959493929190611b88565b60405180910390f35b6101d160048036038101906101cc9190611e20565b610dc2565b005b6101ed60048036038101906101e89190611edb565b610fd0565b005b61020960048036038101906102049190611edb565b611285565b6040516102169190611f1b565b60405180910390f35b61023960048036038101906102349190611520565b6112aa565b005b61024361139f565b6000828154811061025757610256611f36565b5b906000526020600020906008020160405180610100016040529081600082015481526020016001820160009054906101000a900473ffffffffffffffffffffffffffffffffffffffff1673ffffffffffffffffffffffffffffffffffffffff1673ffffffffffffffffffffffffffffffffffffffff1681526020016002820180546102e190611f94565b80601f016020809104026020016040519081016040528092919081815260200182805461030d90611f94565b801561035a5780601f1061032f5761010080835404028352916020019161035a565b820191906000526020600020905b81548152906001019060200180831161033d57829003601f168201915b5050505050815260200160038201805461037390611f94565b80601f016020809104026020016040519081016040528092919081815260200182805461039f90611f94565b80156103ec5780601f106103c1576101008083540402835291602001916103ec565b820191906000526020600020905b8154815290600101906020018083116103cf57829003601f168201915b5050505050815260200160048201805480602002602001604051908101604052809291908181526020016000905b828210156104c657838290600052602060002001805461043990611f94565b80601f016020809104026020016040519081016040528092919081815260200182805461046590611f94565b80156104b25780601f10610487576101008083540402835291602001916104b2565b820191906000526020600020905b81548152906001019060200180831161049557829003601f168201915b50505050508152602001906001019061041a565b50505050815260200160058201548152602001600682015481526020016007820160009054906101000a900460ff1615151515815250509050919050565b6060600080838154811061051b5761051a611f36565b5b906000526020600020906008020160405180610100016040529081600082015481526020016001820160009054906101000a900473ffffffffffffffffffffffffffffffffffffffff1673ffffffffffffffffffffffffffffffffffffffff1673ffffffffffffffffffffffffffffffffffffffff1681526020016002820180546105a590611f94565b80601f01602080910402602001604051908101604052809291908181526020018280546105d190611f94565b801561061e5780601f106105f35761010080835404028352916020019161061e565b820191906000526020600020905b81548152906001019060200180831161060157829003601f168201915b5050505050815260200160038201805461063790611f94565b80601f016020809104026020016040519081016040528092919081815260200182805461066390611f94565b80156106b05780601f10610685576101008083540402835291602001916106b0565b820191906000526020600020905b81548152906001019060200180831161069357829003601f168201915b5050505050815260200160048201805480602002602001604051908101604052809291908181526020016000905b8282101561078a5783829060005260206000200180546106fd90611f94565b80601f016020809104026020016040519081016040528092919081815260200182805461072990611f94565b80156107765780601f1061074b57610100808354040283529160200191610776565b820191906000526020600020905b81548152906001019060200180831161075957829003601f168201915b5050505050815260200190600101906106de565b50505050815260200160058201548152602001600682015481526020016007820160009054906101000a900460ff1615151515815250509050600081608001515167ffffffffffffffff8111156107e4576107e3611c0f565b5b6040519080825280602002602001820160405280156108125781602001602082028036833780820191505090505b50905060005b826080015151811015610876576001600086815260200190815260200160002060008281526020019081526020016000205482828151811061085d5761085c611f36565b5b6020026020010181815250508080600101915050610818565b508092505050919050565b60606000805480602002602001604051908101604052809291908181526020016000905b82821015610b64578382906000526020600020906008020160405180610100016040529081600082015481526020016001820160009054906101000a900473ffffffffffffffffffffffffffffffffffffffff1673ffffffffffffffffffffffffffffffffffffffff1673ffffffffffffffffffffffffffffffffffffffff16815260200160028201805461093990611f94565b80601f016020809104026020016040519081016040528092919081815260200182805461096590611f94565b80156109b25780601f10610987576101008083540402835291602001916109b2565b820191906000526020600020905b81548152906001019060200180831161099557829003601f168201915b505050505081526020016003820180546109cb90611f94565b80601f01602080910402602001604051908101604052809291908181526020018280546109f790611f94565b8015610a445780601f10610a1957610100808354040283529160200191610a44565b820191906000526020600020905b815481529060010190602001808311610a2757829003601f168201915b5050505050815260200160048201805480602002602001604051908101604052809291908181526020016000905b82821015610b1e578382906000526020600020018054610a9190611f94565b80601f0160208091040260200160405190810160405280929190818152602001828054610abd90611f94565b8015610b0a5780601f10610adf57610100808354040283529160200191610b0a565b820191906000526020600020905b815481529060010190602001808311610aed57829003601f168201915b505050505081526020019060010190610a72565b50505050815260200160058201548152602001600682015481526020016007820160009054906101000a900460ff161515151581525050815260200190600101906108a5565b50505050905090565b60026020528160005260406000206020528060005260406000206000915091509054906101000a900460ff1681565b6060600360008373ffffffffffffffffffffffffffffffffffffffff1673ffffffffffffffffffffffffffffffffffffffff168152602001908152602001600020805480602002602001604051908101604052809291908181526020018280548015610c2757602002820191906000526020600020905b815481526020019060010190808311610c13575b50505050509050919050565b60008181548110610c4357600080fd5b90600052602060002090600802016000915090508060000154908060010160009054906101000a900473ffffffffffffffffffffffffffffffffffffffff1690806002018054610c9290611f94565b80601f0160208091040260200160405190810160405280929190818152602001828054610cbe90611f94565b8015610d0b5780601f10610ce057610100808354040283529160200191610d0b565b820191906000526020600020905b815481529060010190602001808311610cee57829003601f168201915b505050505090806003018054610d2090611f94565b80601f0160208091040260200160405190810160405280929190818152602001828054610d4c90611f94565b8015610d995780601f10610d6e57610100808354040283529160200191610d99565b820191906000526020600020905b815481529060010190602001808311610d7c57829003601f168201915b5050505050908060050154908060060154908060070160009054906101000a900460ff16905087565b600282511015610e07576040517f08c379a0000000000000000000000000000000000000000000000000000000008152600401610dfe90612011565b60405180910390fd5b6000603c82610e169190612060565b42610e2191906120a2565b9050600060405180610100016040528060008054905081526020013373ffffffffffffffffffffffffffffffffffffffff1681526020018781526020018681526020018581526020018381526020016000815260200160011515815250905060008190806001815401808255809150506001900390600052602060002090600802016000909190919091506000820151816000015560208201518160010160006101000a81548173ffffffffffffffffffffffffffffffffffffffff021916908373ffffffffffffffffffffffffffffffffffffffff1602179055506040820151816002019081610f129190612282565b506060820151816003019081610f289190612282565b506080820151816004019080519060200190610f459291906113fc565b5060a0820151816005015560c0820151816006015560e08201518160070160006101000a81548160ff02191690831515021790555050507fc3ad3dd4f77bea708d7c21b918efa79c536b30c5048924662db7a2bd96f483166001600080549050610faf9190612354565b8784604051610fc093929190612388565b60405180910390a1505050505050565b6000808381548110610fe557610fe4611f36565b5b906000526020600020906008020190508060050154421061103b576040517f08c379a000000000000000000000000000000000000000000000000000000000815260040161103290612412565b60405180910390fd5b6002600084815260200190815260200160002060003373ffffffffffffffffffffffffffffffffffffffff1673ffffffffffffffffffffffffffffffffffffffff16815260200190815260200160002060009054906101000a900460ff16156110d9576040517f08c379a00000000000000000000000000000000000000000000000000000000081526004016110d09061247e565b60405180910390fd5b80600401805490508210611122576040517f08c379a0000000000000000000000000000000000000000000000000000000008152600401611119906124ea565b60405180910390fd5b60016000848152602001908152602001600020600083815260200190815260200160002060008154809291906111579061250a565b91905055508060060160008154809291906111719061250a565b919050555060016002600085815260200190815260200160002060003373ffffffffffffffffffffffffffffffffffffffff1673ffffffffffffffffffffffffffffffffffffffff16815260200190815260200160002060006101000a81548160ff021916908315150217905550600360003373ffffffffffffffffffffffffffffffffffffffff1673ffffffffffffffffffffffffffffffffffffffff1681526020019081526020016000208390806001815401808255809150506001900390600052602060002001600090919091909150557f1abe610cf2bf87e57dcc1181fcf5ac0934e843d8344ab9eed6e86c799f62585e83338460405161127893929190612552565b60405180910390a1505050565b6001602052816000526040600020602052806000526040600020600091509150505481565b803373ffffffffffffffffffffffffffffffffffffffff16600082815481106112d6576112d5611f36565b5b906000526020600020906008020160010160009054906101000a900473ffffffffffffffffffffffffffffffffffffffff1673ffffffffffffffffffffffffffffffffffffffff161461135e576040517f08c379a0000000000000000000000000000000000000000000000000000000008152600401611355906125d5565b60405180910390fd5b600080838154811061137357611372611f36565b5b906000526020600020906008020160070160006101000a81548160ff0219169083151502179055505050565b60405180610100016040528060008152602001600073ffffffffffffffffffffffffffffffffffffffff16815260200160608152602001606081526020016060815260200160008152602001600081526020016000151581525090565b828054828255906000526020600020908101928215611444579160200282015b828111156114435782518290816114339190612282565b509160200191906001019061141c565b5b5090506114519190611455565b5090565b5b80821115611475576000818161146c9190611479565b50600101611456565b5090565b50805461148590611f94565b6000825580601f1061149757506114b6565b601f0160209004906000526020600020908101906114b591906114b9565b5b50565b5b808211156114d25760008160009055506001016114ba565b5090565b6000604051905090565b600080fd5b600080fd5b6000819050919050565b6114fd816114ea565b811461150857600080fd5b50565b60008135905061151a816114f4565b92915050565b600060208284031215611536576115356114e0565b5b60006115448482850161150b565b91505092915050565b611556816114ea565b82525050565b600073ffffffffffffffffffffffffffffffffffffffff82169050919050565b60006115878261155c565b9050919050565b6115978161157c565b82525050565b600081519050919050565b600082825260208201905092915050565b60005b838110156115d75780820151818401526020810190506115bc565b60008484015250505050565b6000601f19601f8301169050919050565b60006115ff8261159d565b61160981856115a8565b93506116198185602086016115b9565b611622816115e3565b840191505092915050565b600081519050919050565b600082825260208201905092915050565b6000819050602082019050919050565b600061166583836115f4565b905092915050565b6000602082019050919050565b60006116858261162d565b61168f8185611638565b9350836020820285016116a185611649565b8060005b858110156116dd57848403895281516116be8582611659565b94506116c98361166d565b925060208a019950506001810190506116a5565b50829750879550505050505092915050565b60008115159050919050565b611704816116ef565b82525050565b600061010083016000830151611723600086018261154d565b506020830151611736602086018261158e565b506040830151848203604086015261174e82826115f4565b9150506060830151848203606086015261176882826115f4565b91505060808301518482036080860152611782828261167a565b91505060a083015161179760a086018261154d565b5060c08301516117aa60c086018261154d565b5060e08301516117bd60e08601826116fb565b508091505092915050565b600060208201905081810360008301526117e2818461170a565b905092915050565b600081519050919050565b600082825260208201905092915050565b6000819050602082019050919050565b6000611822838361154d565b60208301905092915050565b6000602082019050919050565b6000611846826117ea565b61185081856117f5565b935061185b83611806565b8060005b8381101561188c5781516118738882611816565b975061187e8361182e565b92505060018101905061185f565b5085935050505092915050565b600060208201905081810360008301526118b3818461183b565b905092915050565b600081519050919050565b600082825260208201905092915050565b6000819050602082019050919050565b600061010083016000830151611900600086018261154d565b506020830151611913602086018261158e565b506040830151848203604086015261192b82826115f4565b9150506060830151848203606086015261194582826115f4565b9150506080830151848203608086015261195f828261167a565b91505060a083015161197460a086018261154d565b5060c083015161198760c086018261154d565b5060e083015161199a60e08601826116fb565b508091505092915050565b60006119b183836118e7565b905092915050565b6000602082019050919050565b60006119d1826118bb565b6119db81856118c6565b9350836020820285016119ed856118d7565b8060005b85811015611a295784840389528151611a0a85826119a5565b9450611a15836119b9565b925060208a019950506001810190506119f1565b50829750879550505050505092915050565b60006020820190508181036000830152611a5581846119c6565b905092915050565b611a668161157c565b8114611a7157600080fd5b50565b600081359050611a8381611a5d565b92915050565b60008060408385031215611aa057611a9f6114e0565b5b6000611aae8582860161150b565b9250506020611abf85828601611a74565b9150509250929050565b611ad2816116ef565b82525050565b6000602082019050611aed6000830184611ac9565b92915050565b600060208284031215611b0957611b086114e0565b5b6000611b1784828501611a74565b91505092915050565b611b29816114ea565b82525050565b611b388161157c565b82525050565b600082825260208201905092915050565b6000611b5a8261159d565b611b648185611b3e565b9350611b748185602086016115b9565b611b7d816115e3565b840191505092915050565b600060e082019050611b9d600083018a611b20565b611baa6020830189611b2f565b8181036040830152611bbc8188611b4f565b90508181036060830152611bd08187611b4f565b9050611bdf6080830186611b20565b611bec60a0830185611b20565b611bf960c0830184611ac9565b98975050505050505050565b600080fd5b600080fd5b7f4e487b7100000000000000000000000000000000000000000000000000000000600052604160045260246000fd5b611c47826115e3565b810181811067ffffffffffffffff82111715611c6657611c65611c0f565b5b80604052505050565b6000611c796114d6565b9050611c858282611c3e565b919050565b600067ffffffffffffffff821115611ca557611ca4611c0f565b5b611cae826115e3565b9050602081019050919050565b82818337600083830152505050565b6000611cdd611cd884611c8a565b611c6f565b905082815260208101848484011115611cf957611cf8611c0a565b5b611d04848285611cbb565b509392505050565b600082601f830112611d2157611d20611c05565b5b8135611d31848260208601611cca565b91505092915050565b600067ffffffffffffffff821115611d5557611d54611c0f565b5b602082029050602081019050919050565b600080fd5b6000611d7e611d7984611d3a565b611c6f565b90508083825260208201905060208402830185811115611da157611da0611d66565b5b835b81811015611de857803567ffffffffffffffff811115611dc657611dc5611c05565b5b808601611dd38982611d0c565b85526020850194505050602081019050611da3565b5050509392505050565b600082601f830112611e0757611e06611c05565b5b8135611e17848260208601611d6b565b91505092915050565b60008060008060808587031215611e3a57611e396114e0565b5b600085013567ffffffffffffffff811115611e5857611e576114e5565b5b611e6487828801611d0c565b945050602085013567ffffffffffffffff811115611e8557611e846114e5565b5b611e9187828801611d0c565b935050604085013567ffffffffffffffff811115611eb257611eb16114e5565b5b611ebe87828801611df2565b9250506060611ecf8782880161150b565b91505092959194509250565b60008060408385031215611ef257611ef16114e0565b5b6000611f008582860161150b565b9250506020611f118582860161150b565b9150509250929050565b6000602082019050611f306000830184611b20565b92915050565b7f4e487b7100000000000000000000000000000000000000000000000000000000600052603260045260246000fd5b7f4e487b7100000000000000000000000000000000000000000000000000000000600052602260045260246000fd5b60006002820490506001821680611fac57607f821691505b602082108103611fbf57611fbe611f65565b5b50919050565b7f4174206c656173742032206f7074696f6e730000000000000000000000000000600082015250565b6000611ffb601283611b3e565b915061200682611fc5565b602082019050919050565b6000602082019050818103600083015261202a81611fee565b9050919050565b7f4e487b7100000000000000000000000000000000000000000000000000000000600052601160045260246000fd5b600061206b826114ea565b9150612076836114ea565b9250828202612084816114ea565b9150828204841483151761209b5761209a612031565b5b5092915050565b60006120ad826114ea565b91506120b8836114ea565b92508282019050808211156120d0576120cf612031565b5b92915050565b60008190508160005260206000209050919050565b60006020601f8301049050919050565b600082821b905092915050565b6000600883026121387fffffffffffffffffffffffffffffffffffffffffffffffffffffffffffffffff826120fb565b61214286836120fb565b95508019841693508086168417925050509392505050565b6000819050919050565b600061217f61217a612175846114ea565b61215a565b6114ea565b9050919050565b6000819050919050565b61219983612164565b6121ad6121a582612186565b848454612108565b825550505050565b600090565b6121c26121b5565b6121cd818484612190565b505050565b5b818110156121f1576121e66000826121ba565b6001810190506121d3565b5050565b601f82111561223657612207816120d6565b612210846120eb565b8101602085101561221f578190505b61223361222b856120eb565b8301826121d2565b50505b505050565b600082821c905092915050565b60006122596000198460080261223b565b1980831691505092915050565b60006122728383612248565b9150826002028217905092915050565b61228b8261159d565b67ffffffffffffffff8111156122a4576122a3611c0f565b5b6122ae8254611f94565b6122b98282856121f5565b600060209050601f8311600181146122ec57600084156122da578287015190505b6122e48582612266565b86555061234c565b601f1984166122fa866120d6565b60005b82811015612322578489015182556001820191506020850194506020810190506122fd565b8683101561233f578489015161233b601f891682612248565b8355505b6001600288020188555050505b505050505050565b600061235f826114ea565b915061236a836114ea565b925082820390508181111561238257612381612031565b5b92915050565b600060608201905061239d6000830186611b20565b81810360208301526123af8185611b4f565b90506123be6040830184611b20565b949350505050565b7f506f6c6c20656e64656400000000000000000000000000000000000000000000600082015250565b60006123fc600a83611b3e565b9150612407826123c6565b602082019050919050565b6000602082019050818103600083015261242b816123ef565b9050919050565b7f416c726561647920766f74656400000000000000000000000000000000000000600082015250565b6000612468600d83611b3e565b915061247382612432565b602082019050919050565b600060208201905081810360008301526124978161245b565b9050919050565b7f496e76616c6964206f7074696f6e000000000000000000000000000000000000600082015250565b60006124d4600e83611b3e565b91506124df8261249e565b602082019050919050565b60006020820190508181036000830152612503816124c7565b9050919050565b6000612515826114ea565b91507fffffffffffffffffffffffffffffffffffffffffffffffffffffffffffffffff820361254757612546612031565b5b600182019050919050565b60006060820190506125676000830186611b20565b6125746020830185611b2f565b6125816040830184611b20565b949350505050565b7f4e6f742063726561746f72000000000000000000000000000000000000000000600082015250565b60006125bf600b83611b3e565b91506125ca82612589565b602082019050919050565b600060208201905081810360008301526125ee816125b2565b905091905056fea2646970667358221220a5af7ee2d123864660c58323036157bf224cedabf5ddc2f87d3739838f263bcf64736f6c634300081c0033",
  "linkReferences": {},
  "deployedLinkReferences": {}
}